{
  "contractName": "Authentitation",
  "abi": [
    {
      "inputs": [],
      "payable": false,
      "stateMutability": "nonpayable",
      "type": "constructor"
    },
    {
      "anonymous": false,
      "inputs": [
        {
          "indexed": false,
          "internalType": "address",
          "name": "_add",
          "type": "address"
        }
      ],
      "name": "Login",
      "type": "event"
    },
    {
      "anonymous": false,
      "inputs": [
        {
          "indexed": false,
          "internalType": "address",
          "name": "_add",
          "type": "address"
        }
      ],
      "name": "Logout",
      "type": "event"
    },
    {
      "anonymous": false,
      "inputs": [
        {
          "indexed": false,
          "internalType": "address",
          "name": "_add",
          "type": "address"
        }
      ],
      "name": "Modify",
      "type": "event"
    },
    {
      "anonymous": false,
      "inputs": [
        {
          "indexed": false,
          "internalType": "address",
          "name": "_add",
          "type": "address"
        }
      ],
      "name": "Register",
      "type": "event"
    },
    {
      "anonymous": false,
      "inputs": [
        {
          "indexed": false,
          "internalType": "address",
          "name": "_from",
          "type": "address"
        },
        {
          "indexed": false,
          "internalType": "address",
          "name": "_to",
          "type": "address"
        },
        {
          "indexed": false,
          "internalType": "uint256",
          "name": "_amount",
          "type": "uint256"
        }
      ],
      "name": "Transfer",
      "type": "event"
    },
    {
      "constant": false,
      "inputs": [
        {
          "internalType": "string",
          "name": "_name",
          "type": "string"
        },
        {
          "internalType": "string",
          "name": "_password",
          "type": "string"
        }
      ],
      "name": "register",
      "outputs": [],
      "payable": false,
      "stateMutability": "nonpayable",
      "type": "function"
    },
    {
      "constant": false,
      "inputs": [
        {
          "internalType": "string",
          "name": "_name",
          "type": "string"
        },
        {
          "internalType": "string",
          "name": "_password",
          "type": "string"
        }
      ],
      "name": "login",
      "outputs": [],
      "payable": false,
      "stateMutability": "nonpayable",
      "type": "function"
    },
    {
      "constant": false,
      "inputs": [
        {
          "internalType": "string",
          "name": "_newName",
          "type": "string"
        },
        {
          "internalType": "string",
          "name": "_newPassword",
          "type": "string"
        }
      ],
      "name": "modify",
      "outputs": [],
      "payable": false,
      "stateMutability": "nonpayable",
      "type": "function"
    },
    {
      "constant": false,
      "inputs": [],
      "name": "logout",
      "outputs": [],
      "payable": false,
      "stateMutability": "nonpayable",
      "type": "function"
    },
    {
      "constant": false,
      "inputs": [
        {
          "internalType": "address payable",
          "name": "_to",
          "type": "address"
        }
      ],
      "name": "transfer",
      "outputs": [],
      "payable": true,
      "stateMutability": "payable",
      "type": "function"
    }
  ],
  "bytecode": "0x608060405234801561001057600080fd5b50600080819055506112e3806100276000396000f3fe60806040526004361061004a5760003560e01c80631a6952301461004f5780631f3c99c3146100935780632daf7e98146100aa5780633ffbd47f1461020957806358467dbc14610368575b600080fd5b6100916004803603602081101561006557600080fd5b81019080803573ffffffffffffffffffffffffffffffffffffffff1690602001909291905050506104c7565b005b34801561009f57600080fd5b506100a861062d565b005b3480156100b657600080fd5b50610207600480360360408110156100cd57600080fd5b81019080803590602001906401000000008111156100ea57600080fd5b8201836020820111156100fc57600080fd5b8035906020019184600183028401116401000000008311171561011e57600080fd5b91908080601f016020809104026020016040519081016040528093929190818152602001838380828437600081840152601f19601f8201169050808301925050505050505091929192908035906020019064010000000081111561018157600080fd5b82018360208201111561019357600080fd5b803590602001918460018302840111640100000000831117156101b557600080fd5b91908080601f016020809104026020016040519081016040528093929190818152602001838380828437600081840152601f19601f820116905080830192505050505050509192919290505050610832565b005b34801561021557600080fd5b506103666004803603604081101561022c57600080fd5b810190808035906020019064010000000081111561024957600080fd5b82018360208201111561025b57600080fd5b8035906020019184600183028401116401000000008311171561027d57600080fd5b91908080601f016020809104026020016040519081016040528093929190818152602001838380828437600081840152601f19601f820116905080830192505050505050509192919290803590602001906401000000008111156102e057600080fd5b8201836020820111156102f257600080fd5b8035906020019184600183028401116401000000008311171561031457600080fd5b91908080601f016020809104026020016040519081016040528093929190818152602001838380828437600081840152601f19601f820116905080830192505050505050509192919290505050610a97565b005b34801561037457600080fd5b506104c56004803603604081101561038b57600080fd5b81019080803590602001906401000000008111156103a857600080fd5b8201836020820111156103ba57600080fd5b803590602001918460018302840111640100000000831117156103dc57600080fd5b91908080601f016020809104026020016040519081016040528093929190818152602001838380828437600081840152601f19601f8201169050808301925050505050505091929192908035906020019064010000000081111561043f57600080fd5b82018360208201111561045157600080fd5b8035906020019184600183028401116401000000008311171561047357600080fd5b91908080601f016020809104026020016040519081016040528093929190818152602001838380828437600081840152601f19601f820116905080830192505050505050509192919290505050610d9b565b005b600260003373ffffffffffffffffffffffffffffffffffffffff1673ffffffffffffffffffffffffffffffffffffffff16815260200190815260200160002060020160019054906101000a900460ff1661052057600080fd5b343373ffffffffffffffffffffffffffffffffffffffff1631101561054457600080fd5b8073ffffffffffffffffffffffffffffffffffffffff166108fc349081150290604051600060405180830381858888f1935050505015801561058a573d6000803e3d6000fd5b507fddf252ad1be2c89b69c2b068fc378daa952ba7f163c4a11628f55a4df523b3ef338234604051808473ffffffffffffffffffffffffffffffffffffffff1673ffffffffffffffffffffffffffffffffffffffff1681526020018373ffffffffffffffffffffffffffffffffffffffff1673ffffffffffffffffffffffffffffffffffffffff168152602001828152602001935050505060405180910390a150565b600260003373ffffffffffffffffffffffffffffffffffffffff1673ffffffffffffffffffffffffffffffffffffffff16815260200190815260200160002060020160019054906101000a900460ff1680156106d55750600260003373ffffffffffffffffffffffffffffffffffffffff1673ffffffffffffffffffffffffffffffffffffffff16815260200190815260200160002060020160009054906101000a900460ff165b6106de57600080fd5b6000600260003373ffffffffffffffffffffffffffffffffffffffff1673ffffffffffffffffffffffffffffffffffffffff16815260200190815260200160002060020160016101000a81548160ff021916908315150217905550600260003373ffffffffffffffffffffffffffffffffffffffff1673ffffffffffffffffffffffffffffffffffffffff168152602001908152602001600020600080820160006107899190611141565b60018201600090556002820160006101000a81549060ff02191690556002820160016101000a81549060ff021916905550506000808154809291906001900391905055507fe7900c232227c6acb496cef22db9716afc7549a305a7f200e07fbb171cc9d68033604051808273ffffffffffffffffffffffffffffffffffffffff1673ffffffffffffffffffffffffffffffffffffffff16815260200191505060405180910390a1565b600260003373ffffffffffffffffffffffffffffffffffffffff1673ffffffffffffffffffffffffffffffffffffffff16815260200190815260200160002060020160019054906101000a900460ff1661088b57600080fd5b81600260003373ffffffffffffffffffffffffffffffffffffffff1673ffffffffffffffffffffffffffffffffffffffff16815260200190815260200160002060000190805190602001906108e1929190611189565b506002816040516020018082805190602001908083835b6020831061091b57805182526020820191506020810190506020830392506108f8565b6001836020036101000a0380198251168184511680821785525050505050509050019150506040516020818303038152906040526040518082805190602001908083835b60208310610982578051825260208201915060208101905060208303925061095f565b6001836020036101000a038019825116818451168082178552505050505050905001915050602060405180830381855afa1580156109c4573d6000803e3d6000fd5b5050506040513d60208110156109d957600080fd5b8101908080519060200190929190505050600260003373ffffffffffffffffffffffffffffffffffffffff1673ffffffffffffffffffffffffffffffffffffffff168152602001908152602001600020600101819055507fcc49ae3681b668e167a74bea69fc2da02b20cf7a9de11660bf6020b22ed8641433604051808273ffffffffffffffffffffffffffffffffffffffff1673ffffffffffffffffffffffffffffffffffffffff16815260200191505060405180910390a15050565b600260003373ffffffffffffffffffffffffffffffffffffffff1673ffffffffffffffffffffffffffffffffffffffff16815260200190815260200160002060020160009054906101000a900460ff1615610af157600080fd5b60405180608001604052808381526020016002836040516020018082805190602001908083835b60208310610b3b5780518252602082019150602081019050602083039250610b18565b6001836020036101000a0380198251168184511680821785525050505050509050019150506040516020818303038152906040526040518082805190602001908083835b60208310610ba25780518252602082019150602081019050602083039250610b7f565b6001836020036101000a038019825116818451168082178552505050505050905001915050602060405180830381855afa158015610be4573d6000803e3d6000fd5b5050506040513d6020811015610bf957600080fd5b8101908080519060200190929190505050815260200160011515815260200160001515815250600260003373ffffffffffffffffffffffffffffffffffffffff1673ffffffffffffffffffffffffffffffffffffffff1681526020019081526020016000206000820151816000019080519060200190610c7a929190611209565b506020820151816001015560408201518160020160006101000a81548160ff02191690831515021790555060608201518160020160016101000a81548160ff02191690831515021790555090505060008081548092919060010191905055506001600260003373ffffffffffffffffffffffffffffffffffffffff1673ffffffffffffffffffffffffffffffffffffffff16815260200190815260200160002060020160006101000a81548160ff0219169083151502179055507feeda149c76076b34d4b9d8896c2f7efc0d33d1c7b53ea3c5db490d64613f603a33604051808273ffffffffffffffffffffffffffffffffffffffff1673ffffffffffffffffffffffffffffffffffffffff16815260200191505060405180910390a15050565b600260003373ffffffffffffffffffffffffffffffffffffffff1673ffffffffffffffffffffffffffffffffffffffff16815260200190815260200160002060020160009054906101000a900460ff16610df457600080fd5b816040516020018082805190602001908083835b60208310610e2b5780518252602082019150602081019050602083039250610e08565b6001836020036101000a03801982511681845116808217855250505050505090500191505060405160208183030381529060405280519060200120600260003373ffffffffffffffffffffffffffffffffffffffff1673ffffffffffffffffffffffffffffffffffffffff1681526020019081526020016000206000016040516020018082805460018160011615610100020316600290048015610f065780601f10610ee4576101008083540402835291820191610f06565b820191906000526020600020905b815481529060010190602001808311610ef2575b50509150506040516020818303038152906040528051906020012014801561107657506002816040516020018082805190602001908083835b60208310610f625780518252602082019150602081019050602083039250610f3f565b6001836020036101000a0380198251168184511680821785525050505050509050019150506040516020818303038152906040526040518082805190602001908083835b60208310610fc95780518252602082019150602081019050602083039250610fa6565b6001836020036101000a038019825116818451168082178552505050505050905001915050602060405180830381855afa15801561100b573d6000803e3d6000fd5b5050506040513d602081101561102057600080fd5b8101908080519060200190929190505050600260003373ffffffffffffffffffffffffffffffffffffffff1673ffffffffffffffffffffffffffffffffffffffff16815260200190815260200160002060010154145b61107f57600080fd5b6001600260003373ffffffffffffffffffffffffffffffffffffffff1673ffffffffffffffffffffffffffffffffffffffff16815260200190815260200160002060020160016101000a81548160ff0219169083151502179055507feecc1c95560ca710186ee51249c5b7ba2cb81699a5abefe6d28825017f5786a233604051808273ffffffffffffffffffffffffffffffffffffffff1673ffffffffffffffffffffffffffffffffffffffff16815260200191505060405180910390a15050565b50805460018160011615610100020316600290046000825580601f106111675750611186565b601f0160209004906000526020600020908101906111859190611289565b5b50565b828054600181600116156101000203166002900490600052602060002090601f016020900481019282601f106111ca57805160ff19168380011785556111f8565b828001600101855582156111f8579182015b828111156111f75782518255916020019190600101906111dc565b5b5090506112059190611289565b5090565b828054600181600116156101000203166002900490600052602060002090601f016020900481019282601f1061124a57805160ff1916838001178555611278565b82800160010185558215611278579182015b8281111561127757825182559160200191906001019061125c565b5b5090506112859190611289565b5090565b6112ab91905b808211156112a757600081600090555060010161128f565b5090565b9056fea265627a7a723158209a6be7b7a00494b80e9a255ecdd11f81d8113e30a7869ce86e9b7233ba38f0f064736f6c63430005100032",
  "source": "pragma solidity >=0.4.22 <0.6.0;\r\ncontract Authentitation{\r\n    uint numUsers; //系统用户数量\r\n    uint flag; //执行结果标记\r\n    struct User{\r\n        string name; //用户名\r\n        bytes32 password; //用户密码\r\n        // string role; //用户角色\r\n        bool hasRegistered; //用户注册状态\r\n        bool hasLogin; //用户登录状态\r\n    }\r\n    mapping(address => User) private addressToUser; //地址到用户信息的映射\r\n\r\n    event Register(address _add);\r\n    event Login(address _add);\r\n    event Modify(address _add);\r\n    event Logout(address _add);\r\n    event Transfer(address _from, address _to, uint _amount); \r\n\r\n    constructor() public{\r\n        //构造函数\r\n        numUsers = 0;\r\n    }\r\n\r\n    function register(string memory _name, string memory _password) public{\r\n        //注册函数\r\n        require(!addressToUser[msg.sender].hasRegistered); //用户状态为未注册才能进行注册操作\r\n        addressToUser[msg.sender] = User(_name, sha256(abi.encodePacked(_password)), true, false); \r\n        numUsers++;\r\n        addressToUser[msg.sender].hasRegistered = true;\r\n        emit Register(msg.sender);\r\n    }\r\n\r\n    function login(string memory _name, string memory _password) public{\r\n        //登陆函数\r\n        require(addressToUser[msg.sender].hasRegistered); //用户状态为已注册才能进行登录操作\r\n        //用户名、密码全部匹配成功才能成功登录\r\n        require(keccak256(abi.encodePacked(addressToUser[msg.sender].name)) == keccak256(abi.encodePacked(_name)) && addressToUser[msg.sender].password == sha256(abi.encodePacked(_password)));\r\n        addressToUser[msg.sender].hasLogin = true;\r\n        emit Login(msg.sender);\r\n    }\r\n\r\n    function modify(string memory _newName, string memory _newPassword) public{\r\n        //用户身份信息修改\r\n        require(addressToUser[msg.sender].hasLogin); //用户状态为已登录才能进行修改操作\r\n        addressToUser[msg.sender].name = _newName;\r\n        addressToUser[msg.sender].password = sha256(abi.encodePacked(_newPassword));\r\n        emit Modify(msg.sender);\r\n    }\r\n\r\n    function logout() public{\r\n        //注销账号\r\n        require(addressToUser[msg.sender].hasLogin && addressToUser[msg.sender].hasRegistered); //已注册且已登录\r\n        addressToUser[msg.sender].hasLogin = false;\r\n        delete addressToUser[msg.sender];\r\n        numUsers--;\r\n        emit Logout(msg.sender);\r\n    }\r\n\r\n    function transfer(address payable _to) payable public{\r\n        //转账函数\r\n        require(addressToUser[msg.sender].hasLogin);//成功登录的前提下才能转账\r\n        require(msg.sender.balance >= msg.value); //余额大于等于转账金额\r\n        _to.transfer(msg.value); //向_to地址转账\r\n        emit Transfer(msg.sender, _to, msg.value);\r\n    }\r\n\r\n\r\n}",
  "sourcePath": "D:/kunwa/Projects/test_authentitation_5/contracts/Authentitation.sol",
  "compiler": {
    "name": "solc",
    "version": "0.5.16+commit.9c3226ce.Emscripten.clang"
  },
  "schemaVersion": "3.0.22",
  "updatedAt": "2020-06-10T14:08:58.580Z",
  "networkType": "ethereum",
  "devdoc": {
    "methods": {}
  },
  "userdoc": {
    "methods": {}
  }
}